:020000040000fa
:080000000004040000000000f0
:020000040000fa
:10080000cf8021000eff21000e01880000000000b3
:10081000000020000000e000020032000001200083
:100820002002880014000700740007000000e000a8
:1008300003003a008042240001002000020037003b
:100840000000200001002000810f70000100320034
:100850000f000700000020000000e000020032004e
:100860000000020000000000d40e020000000000a2
:100870000040da000000fe00c00820000000e00098
:1008800002003200002020009001880000000600d5
:10089000a1028800800478000000eb001f003700f0
:1008a000e284440054a0b4009905ba00e2844400f4
:1008b00054a0b4009906ba00e284440054a0b400e5
:1008c0000006eb00476fde00fd07b200ae018800b6
:1008d000636ce10003003a000ad801000000eb005d
:1008e0000e003700606ce10008003a00004deb009c
:1008f0000a05e800020039003420ec000af0a000ec
:100900008b05e900f9ff3e00040037006168e10053
:10091000010032000086eb000b00070019c7ba0087
:100920000e04e0001905ba0003003a000a00e000d6
:10093000dbff3a0000000600fe07b200ae028800ae
:100940008a047800f5ff37000cd0a300e20f4d00b9
:100950001c003b0089027800354dba000a05e8000a
:10096000020039003420ec000af0a0008b05e900f9
:100970000f003200254dba000a05e80002003900d8
:100980003420ec000af0a0008b05e90008003200da
:100990000c00e0000600320015cdba000a05e800a0
:1009a000020039003420ec000af0a0008b05e900b9
:1009b0008984e80054a0b4000b00e000e2ff3a0094
:1009c000000006009902ba00055d78008b05e90079
:1009d000f7ff3200c82ade00055d78008b05e900cc
:1009e000f3ff32000c00e000f1ff320019ddba0025
:1009f000eeff37000040da000000fe0000000500b6
:020000040000fa
:04afe000deff000090
:020000040000fa
:04afe400f000000079
:020000040000fa
:04afe8007fff0000e7
:020000040000fa
:04afec00dbff000087
:020000040000fa
:04aff00039ff000025
:020000040000fa
:04aff400ffffff005c
:020000040000fa
:10000800fa040000fa040000fa040000fa040000f0
:10001800fa040000fa040000fa040000fa040000e0
:10002800fa040000fa040000fa040000fa040000d0
:10003800fa040000fa040000fa0400000046000078
:10004800fa040000fa040000fa04000080450000e9
:100058000045000000470000fa040000fa04000010
:10006800fa040000fa040000fa040000fa04000090
:10007800fa040000fa040000fa040000fa04000080
:10008800fa040000fa040000fa040000fa04000070
:10009800fa040000fa040000004400008044000054
:1000a800fa040000fa040000fa040000fa04000050
:1000b800fa040000fa040000fa040000fa04000040
:1000c800fa040000fa040000fa040000fa04000030
:1000d800fa040000fa040000fa040000fa04000020
:1000e800fa040000fa040000fa040000fa04000010
:1000f800fa040000fa040000fa040000fa04000000
:10010800fa040000fa040000fa040000fa040000ef
:10011800fa040000fa040000fa040000fa040000df
:10012800fa040000fa040000fa040000fa040000cf
:10013800fa040000fa040000fa040000fa040000bf
:10014800fa040000fa040000fa040000fa040000af
:10015800fa040000fa040000fa040000fa0400009f
:10016800fa040000fa040000fa040000fa0400008f
:10017800fa040000fa040000fa040000fa0400007f
:10018800fa040000fa040000fa040000fa0400006f
:10019800fa040000fa040000fa040000fa0400005f
:1001a800fa040000fa040000fa040000fa0400004f
:1001b800fa040000fa040000fa040000fa0400003f
:1001c800fa040000fa040000fa040000fa0400002f
:1001d800fa040000fa040000fa040000fa0400001f
:1001e800fa040000fa040000fa040000fa0400000f
:1001f800fa040000fa040000fa040000fa040000ff
:10020800fa040000fa040000fa040000fa040000ee
:10021800fa040000fa040000fa040000fa040000de
:10022800fa040000fa040000fa040000fa040000ce
:10023800fa040000fa040000fa040000fa040000be
:10024800fa040000fa040000fa040000fa040000ae
:10025800fa040000fa040000fa040000fa0400009e
:10026800fa040000fa040000fa040000fa0400008e
:0c027800fa040000fa040000fa04000080
:020000040000fa
:108c0000809fbe000000fa0031a78000803821005c
:108c1000808f500003003a0010a780000000e80099
:108c200010a78800a09d80000000e0000300320033
:108c3000a09d80000000e900a09d8800f19c8000bc
:108c4000409d8000808f500035003a00019d8000db
:108c5000509d8000808f50001c003a00119d8000c4
:108c6000609d8000808f500003003a0030c0b30048
:108c7000f6f7b7003e003700119d8000609d800030
:108c8000808f500004003d00109d80000000e8002f
:108c9000109d880003003700109d80000000e9004f
:108ca000109d8800909d8000e10f500005003a0063
:108cb000119d800020ce200001005000306188000e
:108cc0002b003700262cef0029003700019d800083
:108cd000509d8000808f500004003d00009d80006a
:108ce0000000e800009d880003003700009d800020
:108cf0000000e900009d8800809d8000e10f500089
:108d000005003a00019d800020ce200001005000a7
:108d10003062880016003700462cef001400370040
:108d2000f19c8000409d8000808f500004003d0039
:108d3000f09c80000000e800f09c880003003700f1
:108d4000f09c80000000e900f09c8800709d80008d
:108d5000e10f500005003a00f19c800020ce200079
:108d6000010050003063880001003700662cef00de
:108d700000e8a9000080fa004f00be000040060095
:020000040000fa
:108e00003600f800809fbe00829fbe00849fbe0097
:108e1000869fbe000000fa00609c80000000e00019
:108e200003003200609c80000000e900609c880024
:108e3000f09e80000000e00003003200f09e800001
:108e40000000e900f09e880015ea07000108a9006b
:108e500001a8a9000080fa004f03be004f02be0027
:108e60004f01be004f00be003600f9000040060072
:020000040000fa
:108b00003600f800809fbe00829fbe00849fbe009a
:108b1000869fbe000000fa0091d3bf000004e00071
:108b200003003a006de707000168a9000100370063
:108b3000b8ed07000080fa004f03be004f02be00f0
:108b40004f01be004f00be003600f9000040060095
:020000040000fa
:108800003600f800809fbe00829fbe00849fbe009d
:10881000869fbe000000fa0091d3bf000004e00074
:1088200003003a002de8070003c8a9000100370043
:10883000f0ed07000080fa004f03be004f02be00bb
:108840004f01be004f00be003600f9000040060098
:020000040000fa
:108a00003600f800809fbe00829fbe00849fbe009b
:108a1000869fbe000000fa0034ee07000080fa00d6
:108a20004f03be004f02be004f01be004f00be000c
:088a30003600f90000400600c9
:020000040000fa
:108900003600f800809fbe00829fbe00849fbe009c
:10891000869fbe000000fa00ebed07000080fa0021
:108920004f03be004f02be004f01be004f00be000d
:088930003600f90000400600ca
:020000040000fa
:100a000080d50000430200004d5000004333000039
:100a1000323000000000000010000000090000005b
:100a200001000000332000005061000064640000f9
:100a30006c650000204d00006f7400006f720000b4
:100a40006973000065640000205000006f6c0000b6
:100a500061720000697a00006572000020430000a6
:100a60006f6e0000747200006f6c00006c65000017
:100a70007200000000000000000000000000000004
:100a80000000000000000000000000000000000066
:100a90000000000000000000000000000100000055
:100aa0000000000002000000332000005061000040
:100ab000646400006c650000204d00006f7400004d
:100ac0006f72000069730000656400002050000030
:100ad0006f6c000061720000697a000065720000ae
:100ae000204300006f6e0000747200006f6c000005
:100af0006c650000720000000000000000000000b3
:100b000000000000000000000000000000000000e5
:080b10000000000000000000dd
:020000040000fa
:100b18000000fa00270e0700000028000060880087
:100b280070002000106088000058250020608800b0
:100b380010672000306288003062800030618800d1
:100b4800306180003063880010672000f09c8800c6
:100b5800f09c8000009d8800009d8000109d88000a
:100b680010672000609d8800609d8000509d88006f
:100b7800509d8000409d8800b233ef00909d80001a
:100b8800809d8800809d8000709d88000000000086
:100b9800113a800000022000008060000000e000a0
:100ba800fbff3200148ea900107080006200600004
:100bb8000000e00004003a009173ef00701c200070
:100bc800730d07000500370010c0b30091f3b7009c
:100bd800500220006e0d07002188a800044ea800ce
:100be800931f07000080fa00000006000400fa00c6
:100bf8005420ef000000eb00100fba000000eb00db
:100c08009080ba000e80e800010878000e80e800a5
:100c1800100078008000eb00c001dd000200200019
:100c28001e0078008000eb000000710081807100d8
:100c38000080fa00000006007000fa00016421003c
:100c48006400470001087800e16a21006600470057
:100c580001087800c1722100680047000108780087
:100c6800014821006a00470001087800407421000b
:100c7800900078006c0047000108780048d7bf0052
:100c8800804078000174a1006e0047000148780098
:100c9800f60047007000470001087800760047001a
:100ca800e60040007200470001087800a1742100a6
:100cb80074004700010878007000470010007800b1
:100cc800630040008040eb00014878007000470056
:100cd800100078006400400011c0b300014878009b
:100ce800700047001000780065004000ee004700e3
:100cf80091407800014878008040eb000e80e800c1
:100d08000148780046d7bf000000fb00e20f500002
:100d180007003200e40f500008003200e10f5000d5
:100d280009003a0010c8b30072f4b7000800370091
:100d380020c8b30072f4b7000500370030c8b3000c
:100d480072f4b700020037007274ef000000000070
:100d58006c0047001000780011412000810f5000fe
:100d68003201320011412000810f500021003e0065
:100d7800f50f500088023200f50f50000c003e00bd
:100d8800f10f5000af003200f10f500003003e0099
:100d9800e50f500042003200ac023700f20f50005d
:100da800aa003200f40f500070023200a702370088
:100db80011212000810f5000cc00320011212000a9
:100dc800810f500004003e0001212000810f5000d7
:100dd800a00032009d02370031222000810f500010
:100de8009500320001412000810f5000fe003200c2
:100df8009602370001492000810f5000350132006a
:100e080001492000810f500011003e0031452000ab
:100e1800810f50004f01320031452000810f5000f2
:100e280004003e0031442000810f50003901320097
:100e38008602370051462000810f500071013200b0
:100e4800a1462000810f50008f0132007f02370039
:100e580001532000810f5000c701320001532000c8
:100e6800810f500007003e0021492000810f5000eb
:100e780022013200914b2000810f5000bc0132004a
:100e88007202370011532000810f5000e701320031
:100e980061682000810f50001e0232006b0237008b
:100ea80070004700100078006100200001087800f9
:100eb80070004700100078000080e80041c5b300ca
:100ec8000148780070004700100078006400400076
:100ed800f000470091007800e480400091407800dd
:100ee8000174a000014878007200470010007800e3
:100ef800290009000018eb004005b10002582d0038
:100f0800332420000288be00d20425003334230095
:100f1800e40040008288be00220323000300200072
:100f2800e80040008288be0002012000ec0040007a
:100f3800820878009200200013002000ee00400094
:100f48008288be00f20040004255280027000900b0
:100f5800b258780080007800a103b00007000900ab
:100f68008018eb0012002000e1042000808040007f
:100f780082087800210020002005b00001087800d0
:100f8800720047001000780031c3b30072004000bf
:100f980001487800720047001000780031c3b300a0
:100fa800670040000148780072004700100178008f
:100fb80000b8800011b880000089be0072004700a8
:100fc80090007800a0a38000e30f500002003a00d0
:100fd800200020000100370010002000e104b000cc
:100fe800800878007200470010007800416a2000ed
:100ff800a004b000010878007200470010007800d3
:10100800a1552000c004b000010878007200470014
:1010180010007800310020002005b0000108780099
:1010280011c0b3000e80e8000148780020002000bd
:10103800b0a388000c02370000402100d09c880033
:10104800090237009b14a800070237009b14a90067
:101058000502370072d4bf006740600072f4b70021
:1010680047d7bf008000fb00f00f20000080600021
:10107800e10f5000f9013a0046d7bf000000fb001d
:1010880061006000004078000004e00003003200c6
:1010980010002000709d880001003700ae33ef007b
:1010a80046d7bf000000fb00620060000000e000bf
:1010b8000300320010002000809d880001003700e6
:1010c800b033ef0046d7bf000000fb0064006000ab
:1010d8000000e0000300320010002000909d88000e
:1010e800e1013700b233ef00df013700700047003d
:1010f80010007800212120000108780072d4bf0078
:101108006740600072f4b70072d4bf00e34f50002c
:10111800d4013c0072d4bf000000fb000000e900cd
:1011280080004000e03a2100008040001000780074
:101138000000e00012003a0070004700100078003c
:10114800e30040006a004700100078007a01400080
:10115800120178000290a1007a004000020878008d
:101168006a004700100078007a00400010007800fc
:101178004900de00614060008048780011003700b7
:101188007000470010007800e30040006a00470044
:10119800100078007a014000120178000290a00047
:1011a8007a004000020878006a00470010007800c2
:1011b8007a004000100078004900de0061406000bd
:1011c8008048780070004700100078000080e80030
:1011d80011c0b3000148780011c0b3000e80e800c8
:1011e80001487800a001370072d4bf006740600052
:1011f80072f4b70072d4bf000000fb000001e900e0
:1012080074004700100078000080e800900090000b
:10121800100078008001780082004100e039210048
:1012280000804000030878008f01370072d4bf00a7
:101238006740600072f4b700700047001000780043
:101248002141200001087800700047001000780054
:101258000080e80061c0b3000148780070004700d2
:101268001000780064004000f0004700910078000a
:10127800e4804000914078000174a00001487800a3
:10128800720047009000780046d7bf000000fb00be
:1012980080087800720047001001780072d4bf00ff
:1012a8000000fb000000e90080004000e039210058
:1012b8000080400010007800cf80de000281e80046
:1012c8000089be0011c0b3000e80e8000148780014
:1012d8006501370046d7bf0072f4b70072d4bf006b
:1012e8006740600072f4b70072d4bf008040780095
:1012f80010492000640107005b0137006a004700bd
:10130800100078008000eb000002b00001087800af
:101318005501370072d4bf006740600072f4b7000f
:1013280046d7bf0067406000b408070046d7bf0033
:1013380072f4b70072d4bf006740600072f4b7005f
:1013480072d4bf0080407800104920004e01070089
:10135800450137007400470010007800100078003d
:101368000040780072f4b70072d4bf00e14f50001b
:1013780008003a0074004700100078000080e80078
:10138800900090001000780000007800403cb00009
:10139800409d880072d4bf00e24f500008003a0018
:1013a80074004700100078000080e800900090006a
:1013b8001000780000007800403cb000509d880084
:1013c80072d4bf00e44f500008003a007400470090
:1013d800100078000080e80090009000100078006d
:1013e80000007800403cb000609d880072d4bf00c7
:1013f8008040780010492000230107007274ef0034
:101408001901370072d4bf006740600072f4b7005a
:1014180046d7bf000000fb00610060000040780074
:101428000004e00003003200f09c8000409d88002a
:10143800bc73ef0046d7bf000000fb0062006000ed
:101448000000e00003003200009d8000509d8800ed
:10145800bd73ef0046d7bf000000fb0064006000ca
:101468000000e00003003200109d8000609d8800ad
:10147800be73ef0046d7bf0005f8b70030802100e3
:10148800560c0700f800370072d4bf0067406000b0
:1014980072f4b70047d7bf008000fb00f00f2000b0
:1014a80000806000e10f500014003a0072d4bf00c1
:1014b8000000fb000000e90080004000e039210046
:1014c80000804000100078008000780072d4bf00cf
:1014d8000000fb000000e90000014000203c210062
:1014e80000004100100078008080400072d4bf00e6
:1014f8000040e9000f0807001300370072d4bf004e
:101508000000fb000000e90080004000e0392100f5
:1015180000804000100078008000780072d4bf007e
:101528000000fb000000e90000014000203c210011
:1015380000004100100078008080500072d4bf0085
:101548000040e900fb07070046d7bf0072f4b70068
:1015580072d4bf006740600072f4b70072d4bf0055
:101568008040780010492000c7000700be003700ff
:1015780066090700bc00370072d4bf0067406000ee
:1015880072f4b7007400470010007800640040004f
:1015980010007800009e8800740047001000780052
:1015a8000080e800100078000001780070662600ce
:1015b8000090b900c288de004f90de000080500025
:1015c80000407800f1f7b70070088000ea00b90021
:1015d80080007800f1d7bf000080fb000001780090
:1015e800110009008280d800600888007400470054
:1015f800100078006600400010007800109e8800f7
:10160800740047001000780068004000100078005f
:10161800209e880074004700100078006a0040008f
:1016280010007800309e88008f00370072d4bf0009
:101638006740600072f4b70070004700100078003f
:10164800215320000108780070004700100078003e
:101658000080e800c1c0b30001487800700047006e
:101668001000780064004000f00047009100780006
:10167800e4804000914078000174a000014878009f
:10168800720047009000780046d7bf000000fb00ba
:10169800800878007200470010017800f1d7bf0079
:1016a8000080fb00ea00b900800078000280e800b2
:1016b800010878007200470010007800019e800041
:1016c80064004000010878007200470010007800ac
:1016d800119e8000660040000108780072004700f3
:1016e80010007800219e8000680040000108780002
:1016f8007200470010007800319e80006a004000a8
:101708000108780011c0b3000e80e8000148780095
:101718005500370010c0b300f1f7b700700880001b
:10172800ea00b90080007800f1d7bf000080fb0014
:1017380000017800110009008280d8006008880044
:1017480000102000309e8800309e8000209e880077
:10175800209e8000109e8800403c2000009e88004b
:1017680010c0b30060f4b7003f00370074004700b2
:1017780010007800900090001000780000b88800f1
:1017880011b8880000b8800011b88000809e8800d9
:10179800919e8800340037007000470010007800e0
:1017a80061012000010878007000470010007800ef
:1017b8000080e80081c2b30001487800700047004b
:1017c8001000780064004000f000470091007800a5
:1017d800e4804000914078000174a000014878003e
:1017e800809e8000919e800000b8880011b8880013
:1017f800720047001001780000b8800011b880001e
:101808000089be0010002000000f78000800370093
:1018180072004700900078001e0078004200dd004a
:10182800008140006000b8000089be001e0fe8007b
:101838001e007800e90f5000f5ff360011c0b30014
:101848000e80e80001487800070037008040eb0070
:101858000e80e8000148780003003700000000000f
:1018680001003700000000000e80e80010407800fa
:101878000004e0000200320076004700570b070022
:101888000080fa00000006001c00fa0078014700fa
:10189800000978007a00470001487800e400470012
:1018a800090009008018eb0011c9b3006400470063
:1018b8000148780041c0b30065004700014878003e
:1018c800e1c0b300660047000148780011c8b300c2
:1018d800680047000148780011c2b300690047005a
:1018e8000148780000482100000f780001c5b300c6
:1018f8006900470001487800780047001000780028
:10190800804078006400470001487800780047006c
:10191800100078004800de0080407800650047002d
:101928000148780064004700e60040000e80e800a7
:10193800010878007a004700104078008080fb009a
:101948000e80e80010007800010878007a0047004f
:1019580010407800e24f500008003600109d8000cb
:10196800403cb100cf80de000e81e8001201780013
:101978000281e8000089be000e0037007a004700a7
:10198800104078000080fb000000e9008000400063
:10199800e03921000080400010007800403cb10090
:1019a800cf80de000e81e800120178000281e80095
:1019b8000089be00f1d7bf008080fb000e80e800e0
:1019c8001000780066004000010878000e80e800ea
:1019d800100078008000eb006800400001087800e3
:1019e8007a004700104078000f0007000e81e800d9
:1019f800120178006a0141000089be0064004700b6
:101a0800f60a07001e0078000002b00010007800f7
:101a18008000e8001e0078000002b000010878008d
:101a28000080fa00000006000600fa00e400470003
:101a3800804878006000b800008fbe00640047004e
:101a480010407800e24f500023003e006400470039
:101a5800104078000080fb000000e9008000400092
:101a6800e03a21000080400010007800e10f5000ab
:101a780004003a001e0078009e00900001f0a000cb
:101a8800008fbe0064004700104078000080fb0013
:101a98008000e900c03b2100008040001040780031
:101aa800e14f500001003a001e90a000640047007a
:101ab800104078000080fb008000e900c03b210056
:101ac8000080400010407800e24f500011003a00ba
:101ad8001ea0a0000f003700909d8000e10f50006d
:101ae80004003a001e0078009e00900001f0a0005b
:101af800008fbe00bed3bf00e14f500001003a0086
:101b08001e90a000bed3bf00e24f500001003a0073
:101b18001ea0a0006400470010407800e24f50006b
:101b280027003e0064004700104078000080fb005a
:101b38000000e90080004000e039210000804000fa
:101b48001001780064004700104078000080fb0016
:101b58000000e90080004000803a21000080400039
:101b680010007800800f5100010034001e40a000d2
:101b780064004700104078000080fb000000e90086
:101b880080004000e039210000804000100178000a
:101b980064004700104078000080fb000000e90066
:101ba80080004000803a210000804000100078004a
:101bb800800f51000c003d001e50a0000a003700a5
:101bc800119d8000609d8000808f500001003400ce
:101bd8001e40a000119d8000609d8000808f5000f5
:101be80001003d001e50a0001e0078009e009000dd
:101bf8000080fa00000006006600fa0003062000d4
:101c08008e81410080097800200620000e004000e7
:101c180001087800400620000e0040000208780005
:101c280051c08000200620000e00400010007800ff
:101c3800810f500057003200e60047000e80e80090
:101c48000108780066004700e6004000640047008d
:101c5800010878000e80e8001000780011082000c4
:101c6800010878000e80e800100078000080e80085
:101c780041c4b300014878000e80e80010007800e5
:101c8800630040008040eb00014878000e80e800c7
:101c9800100078006400400011c8b30001487800c3
:101ca8000e80e800100078006500400011c2b30003
:101cb8000148780064004700900078000006200082
:101cc8000e0040001000780080087800640047008b
:101cd80090007800200620000e00400010017800d7
:101ce8000180e800020878000000eb00000f78008f
:101cf8006400470010017800400620000e004000f4
:101d080010007800904078001e00410064004000f8
:101d1800014878001e0fe800400620000e00400031
:101d280010007800104078000080fb000000ea00f6
:101d38004f00de0000407800410620008e80400001
:101d4800910078000101e800410620008e804000e3
:101d5800820878000004e000e5ff3a002006200031
:101d68000e0040009000780000002800808f50008e
:101d7800030032000e80e80010007800170a070000
:101d8800200620000e0040009000780051c0880016
:101d980001003700000000000080fa000000060083
:101da8000000fa00881f780059fb0700148ea9006c
:101db800be73ef00bed3bf00bdf3b700bdd3bf00f5
:101dc800bcf3b700b633ef00b09d8000c09d88001b
:101dd800c09d8000d09d8800eb060700809e800093
:101de800919e800000b8880011b8880060d4bf00b8
:101df800e14f400016003a0000c3b30060f4b7009a
:101e080060d4bf0095f3b700148ea80040062000e8
:101e1800b9050700148ea900403c2000009e8800e8
:101e280090012000309e8800309e8000209e88000f
:101e3800209e8000109e880010c0b300f1f7b70004
:101e480000582d003124200000b8880011b88800ff
:101e580070088000ea00b90080007800f1d7bf0060
:101e68000080fb0000017800110009008280d80082
:101e78006008880010672000609d8800609d8000d1
:101e8800509d8800509d8000409d880091d3bf00e0
:101e98000004e00011003a0015cea8001000200050
:101ea800709d8800401f200093050700158ea8002c
:101eb80010002000809d8800401f20008e0507002c
:101ec800154ea80010002000909d8800401f20009b
:101ed80089050700010037000000000091d3bf000a
:101ee8000004e000df013a0061d4bf00e14f500078
:101ef8003b023a00e09e8000f1862600810f5000e8
:101f080058013200f1862600810f50002a003e0059
:101f180031532600810f500013003e001153260054
:101f2800810f5000bd00310011362600810f50008e
:101f38000901320011362600810f500005003e00cd
:101f4800f1ec290001004000e20f5000be013e0004
:101f580074003700f1bc290001004000e20f500076
:101f6800b9013e00bb003700f1762600810f500012
:101f78002a013200f1762600810f500007003e004a
:101f880011762600810f5000f1003200a17626005c
:101f9800810f5000a4013200ab01370031772600d1
:101fa800810f5000e600320061772600810f500053
:101fb80089013200a401370031232700810f500026
:101fc80012003e0011232700810f50002600310027
:101fd80061e72600810f50004601320061e72600c4
:101fe800810f500004003e00e1962600810f50004a
:101ff800cc00320094013700f1fc280001004000b9
:10200800e20f500090013e00a0003700f136270093
:10201800810f50000a013200f1362700810f50006d
:1020280007003e0051262700810f5000bf003200f4
:10203800a1362700810f50006f013200820137005e
:1020480041472700810f50003801320031572700df
:10205800810f50003001320061372700810f500096
:102068003b01320078013700e09e80000000e90063
:1020780063006000e09e8800e09e800080004000d1
:10208800e03a21000080400011002000010878009b
:10209800e09e800080004000e03921000080400080
:1020a8001000780000047800003e21007d0407003d
:1020b80080004400e09e8000004078001d05070075
:1020c8000040780090f3b70090d3bf000004e00010
:1020d8000300320090d3bf00f20207005f0137000f
:1020e800e09e800080004000e03921000080400030
:1020f80010007800403cb100cf80de00e29e8000f6
:102108000241780013c3b300834241000042eb0050
:102118000001be008540780000c5b3008d020700ad
:102128004e013700e09e80000000e9006300600077
:10213800e09e8800003e21005a040700e10f40009d
:1021480010003a00e09e800080004000e03a210044
:10215800008040008000eb0001087800e09e8000cd
:10216800004078001043b0000042eb00f2ff2f005f
:10217800030020008040780000c5b3007502070006
:1021880036013700e09e800080004000e03a2100e0
:10219800008040001100200001087800003e210066
:1021a80040040700413c200080804000e09e800001
:1021b80000407800df0407000040780090f3b70083
:1021c80090d3bf000004e0000300320090d3bf00aa
:1021d800b402070021013700e09e80008000400023
:1021e800e03921000080400010007800403cb10038
:1021f800cf80de00e29e80000241780013c3b30066
:10220800834241000042eb000001be008540780097
:1022180000c5b3004f02070010013700e09e8000a0
:102228000000e90063006000e09e8800e09e8000f6
:1022380080004000e03a21000080400011002000aa
:10224800010878009073ef0090d3bf009502070053
:1022580002013700e09e80000000e9006300600092
:10226800e09e8800e09e800080004000e03a210067
:10227800008040008000eb00010878009073ef00b8
:1022880090d3bf0087020700f4003700e09e80006b
:102298000000e90063006000e09e8800e09e800086
:1022a80080004000e03a21000080400010007800e3
:1022b8000000e0000a003a00e09e8000004078003c
:1022c8001043b0000042eb00f2ff2f000300200093
:1022d8008040780000c5b3001e020700df00370009
:1022e800e09e800080004000e0392100008040002e
:1022f80010007800403cb100cf80de00e29e8000f4
:102308000241780013c3b300834241000042eb004e
:102318000001be008540780000c5b3000d0207002b
:10232800ce00370042020700cc0037000040eb0027
:102338005c020700a2040700ed190700c700370078
:1023480090d3bf00570207009073ef00c300370017
:1023580020c0b30094f3b700023e21001241780078
:1023680011c0b30090c3b300804f51000100360084
:102378008040eb00033e21009341780010c0b30079
:10238800f2c2b30082cf510001003e000040eb00d2
:1023980000c060000004e00005003200e0d3bf0088
:1023a80060f4b70090d3bf003e020700ab003700cf
:1023b800023e21001241780011c0b30060c4b3008e
:1023c800804f5100010036008040eb00033e2100a1
:1023d8009341780010c0b30002c4b30082cf51000b
:1023e80001003e000040eb0000c060000004e00077
:1023f80005003200e0d3bf0060f4b70090d3bf00ff
:10240800280207009500370040c0b30090f3b700da
:1024180090d3bf002302070090003700009e800081
:10242800403cb1008000eb0014c0b3000001be00c6
:10243800f1c4b30080c4b300c601070087003700a9
:10244800003e21008a02070000007800403cb000ee
:10245800009e88009073ef0090d3bf001102070020
:102468007e003700e0d3bf006740600063040700c8
:102478000040780090f3b70090d3bf000004e0005c
:102488000300320090d3bf00060207007300370034
:10249800009d8000403cb100cf80de000042eb0090
:1024a8000001be0011c3b30000c5b300a9010700b5
:1024b800109d8000403cb100cf80de000042eb0060
:1024c8000001be0021c3b30000c5b300a10107008d
:1024d800209d8000403cb100cf80de000042eb0030
:1024e8000001be0031c3b30000c5b3009901070065
:1024f8005a003700203e21005d020700809e8800b8
:10250800919e8800810507009073ef0090d3bf006b
:10251800e4010700510037009073ef0090d3bf002b
:10252800e0010700790507004c003700909c800007
:102538008000eb0014c0b3000001be0041c5b30029
:1025480040c5b300830107009233ef004300370012
:10255800003e2100a40307008080fb00d0cc2c00a3
:102568000008b8004308de0000407800f1f7b70023
:10257800f1d7bf00ea4f500003003e00f1d7bf007b
:102588000004e00007003a0010c0b300f1f7b700fc
:10259800c0c0b30090f3b70090d3bf00c1010700db
:1025a800030037009073ef0090d3bf00bd01070010
:1025b80070088000ea00b90080007800f1d7bf00f9
:1025c8000080fb0000017800110009008280d8001b
:1025d8006008880021003700f1d7bf00ea00b90081
:1025e800004078000041780061c5b30070c4b300b2
:1025f8007901070019003700003e21001c0207007e
:1026080000007800309e8800309e8000209e880060
:10261800209e8000109e88009073ef0090d3bf002a
:10262800a00107000d003700109e80008000eb001d
:1026380014c0b3000001be00a1c4b30070c4b3004d
:10264800440107000500370030c0b30090f3b7001d
:1026580090d3bf0093010700000000006174ef00f1
:102668005f003700ae070700c4d7bf000004e000d2
:102678000300320070f90700c477ef0058003700f4
:10268800e19c8000c03b21000080400010407800a1
:10269800e14f50001f003a00e09c8000800040009d
:1026a800e0392100008040001000780080007800a8
:1026b800009e8000403cb000808f500041003a00ee
:1026c800e19c8000c03b21000080400021c0b30095
:1026d80001487800b0a38000e20f500039003a00aa
:1026e800e09c8000004078000040e800f9f7b7005f
:1026f800e09c8000e20f500003003a00f9d7bf00c9
:102708000040e800f9f7b700707f2100b307070021
:102718002c003700e09c800080004000e039210058
:102728000080400010017800e09c8000800040009c
:10273800803a21000080400010007800800f51008e
:1027480006003200e19c8000403a210000804000f1
:1027580011c0b300014878001a003700e19c8000de
:10276800403a21000080400010407800e14f5000be
:1027780014003a00b0a38000e20f500011003a00a4
:10278800e19c8000403a2100008040008040eb003e
:1027980001487800e09c8000004078000040e80094
:1027a800fff7b700e09c8000e20f500003003a00fa
:1027b800ffd7bf000040e800fff7b700d07f210037
:1027c80086070700e09c80000000e800e09c880085
:1027d800e09c8000e20f5000010034009c33ef00c1
:1027e800b09d80000000e0000b003a00709d800062
:1027f800e10f500008003a00a09d80000000e000b2
:1028080005003a0040062000a09d8800154ea8004b
:1028180010002000b09d8800709d80000000e0003e
:1028280002003a00154ea900b633ef00c09d8000a3
:102838000000e0000b003a00809d8000e10f50008e
:1028480008003a00a09d80000000e00005003a0062
:1028580040062000a09d8800158ea80010002000ca
:10286800c09d8800809d80000000e00002003a00c2
:10287800158ea900b833ef00d09d80000000e0005d
:102888000b003a00909d8000e10f500008003a00cc
:10289800a09d80000000e00005003a0040062000ee
:1028a800a09d880015cea80010002000d09d8800ab
:1028b800909d80000000e00087fd3a0015cea90039
:1028c800ba33ef0085fd37000000fa000080fa00f7
:1028d800000006000000fa00301180000040780077
:1028e80098f3b700f09e80000000e00001003a0075
:1028f800d673ef0098d3bf00ed4f500001003a00a7
:10290800d673ef00007d2000f09e880061d4bf00e0
:10291800e24f500002003a00d673ef008b003700f8
:10292800d6d3bf000080fb00e10f50001500320035
:10293800e10f500003003c000000e00006003200f8
:102948007e003700e20f500023003200e30f5000f2
:102958006000320079003700d873ef008139210018
:102968009140780060d4bf0080cf500003003a0047
:1029780010c0b300d6f3b70074003700d673ef0069
:1029880072003700813921009140780000c6b300f9
:1029980080cf50000e003600813921009140780028
:1029a800a0c7b30080cf500009003e0020c0b3008c
:1029b800d6f3b70098d3bf000080fb004800dd00c5
:1029c800e09e880098d3bf00d7f3b7005f003700b8
:1029d800d673ef005d0037008139210091407800ff
:1029e80000c3b30080cf5000380036008139210081
:1029f80091407800a0c7b30080cf500033003e005c
:102a08003275ef001b00370032d5bf008080fb0015
:102a1800a07c21000080400090407800d7d3bf0000
:102a280080cf500010003a0032d5bf000080fb0074
:102a38008000e800a07c21000080400090407800e1
:102a480098d3bf0080cf500007003a0032d5bf00ae
:102a58000080fb008080e800a07c2100008040000e
:102a680010407800d8f3b70032d5bf00634040006b
:102a780032f5b700215321009140780060c2b300bd
:102a880080cf5000e0ff360098d3bf000080fb00e5
:102a9800e19e800000807000e09e8800d8d3bf00cf
:102aa8000004e00004003a0010c0b30061f4b7006d
:102ab800d673ef000300370030c0b300d6f3b70079
:102ac800da73ef000000000020003700d673ef0033
:102ad8001e003700dad3bf000004e00015003500ff
:102ae800dad3bf000081fb008139210091407800d2
:102af800003e21000000410001487800dad3bf0001
:102b08000040e800daf3b700a13d210091407800c9
:102b1800d8d3bf0080cf50000b003a0010c0b300dc
:102b280061f4b700d8d3bf00d9f3b700d673ef006c
:102b380006003700d673ef0004003700d673ef00a5
:102b48000000000001003700000000000080fa00cb
:102b5800000006000800fa00004f78000e00e800a8
:102b6800014878000e80e8000288be006600470031
:102b78000448780060d4bf005a0007001e4078005f
:102b8800580007000e00e8001040780055000700c4
:102b980066004700104078000004e000050032009d
:102ba8000e80e80090009000100078008d0007006b
:102bb800030037000e80e800100078007800070056
:102bc800d0c0b30047000700a0c0b300450007000d
:102bd8000080fa00000006000400fa00004f7800a8
:102be8000e00e800014878000e80e80002487800ee
:102bf80060d4bf003b0007001e4078003900070082
:102c08000e00e80010407800360007000e80e8004b
:102c18001040780040000700d0c0b3003100070022
:102c2800a0c0b3002f0007000080fa0000000600d3
:102c38000000fa0060d4bf002a00070090c4b30067
:102c480028000700e0c4b3002600070030c0b30026
:102c580031000700809e8000919e8000610007007f
:102c6800a09e80004e0007000040eb002a000700ed
:102c780010c0b30028000700400b200048000700e0
:102c8800a05520000100200056000700d0c0b30066
:102c980014000700a0c0b300120007000080fa006b
:102ca800000006000200fa00004f780060d4bf0060
:102cb8000c00070070c4b3000a00070030c5b30059
:102cc800080007001e40780013000700d0c0b300ba
:102cd80004000700a0c0b300020007000080fa004b
:102ce800000006000200fa00004f78000000000013
:102cf8001111800000102000008060000000e0003a
:102d0800fbff32001e80fb00201188001e40780067
:102d18000080fa00000006000400fa008e80e80037
:102d2800804878000e80e800104078000080fb00a2
:102d38004400de000040780001c3b300014f4000aa
:102d480090c3b3009e40780080cf50000200360048
:102d58009e40780067cf40001e407800e1ff0700e2
:102d68000e80e800104078006f40600001c3b30097
:102d7800014f400090c3b3009e40780080cf5000c0
:102d8800020036009e40780067cf40001e40780061
:102d9800d4ff07000040eb000080fa0000000600a6
:102da8000400fa008e80e800800878000e80e800b1
:102db800100078004800de0000407800d6ff0700c9
:102dc800004f78000e80e80010007800004078007e
:102dd800d1ff07001e4f40001e4078000080fa0017
:102de800000006000600fa000e81e8000089be0017
:102df8000e80e80090009000100078004808de007f
:102e080000407800c4ff0700004f78000e80e800fb
:102e180090009000100078004008de000040780024
:102e2800bdff07001e4f40000e80e8009000900094
:102e3800100078004809dd004800de00000071003d
:102e4800c808de0000407800b3ff07001e4f4000ae
:102e58000e80e8001000780000407800aeff070000
:102e68001e4f40001e4078000080fa000000060057
:102e78001e00fa00889fbe008a9fbe008c9fbe007d
:102e8800e8004700800878006800470010007800d4
:102e9800104078007b0107000080fb008000eb00f9
:102ea800008fbe001e0078009e0090000000780091
:102eb800700060008004eb00000478000800be0089
:102ec800e00f5000e08f5800020032006000b800a8
:102ed800ef0037001e0078009e009000cc01dd0056
:102ee80002002000640047000288be006800470016
:102ef800100078000000e800104078006101070029
:102f08000080fb008000eb00008fbe001e007800f0
:102f18009e00900000007800700060008005eb00c3
:102f2800000578000a00be00e00f5000e08f58004e
:102f3800020032006000b800d50037001e0078009b
:102f48009e009000c801dd000200200064004700d8
:102f580090009000100078000200700083807000dc
:102f6800640147000089be0068004700100078002f
:102f78000080e80010407800420107000080fb0054
:102f88008000eb00008fbe001e0078009e009000bd
:102f980000007800700060008000eb006107980076
:102fa800500798005e009000ee009000e00f50007f
:102fb800e08f5800020032006000b800b40037000b
:102fc8001e0078009e009000c400dd000000200074
:102fd800640147009201900012017800000071001e
:102fe80081807100640147000089be0068004700c5
:102ff80010007800630040001040780021010700ad
:103008000080fb008000eb00008fbe001e007800ef
:103018009e00900000007800700060000001eb0046
:10302800020f9800700798007e0090008e089000ac
:10303800e00f5000e08f5800020032006000b80036
:10304800930037001e0078009e009000c000dd004d
:1030580000002000640147009201900012017800ee
:103068000000710081807100640147000089be0082
:1030780068004700100078006400400010407800a5
:10308800000107000080fb008000eb00008fbe00fd
:103098001e0078009e00900000007800700060001c
:1030a8008001eb00230f9800100f98001e08900075
:1030b800ae089000e00f5000e08f58000200320088
:1030c8006000b800720037001e0178009e01900071
:1030d8004c18dd00c410de00810070004c10dd00cb
:1030e800640147009201900012017800000071000d
:1030f80081807100640147000089be0068004700b4
:10310800100078006500400010407800dd000700de
:103118000080fb008000eb00008fbe001e007800de
:103128009e00900000007800700060008000eb00b6
:10313800410f9800300f98003e089000ce0890008c
:10314800e00f5000e08f5800020032006000b80025
:103158004f0037001e0178009e0190004818dd00de
:10316800c810de00810070004810dd0064014700cf
:1031780092019000120178000000710081807100b6
:10318800640147000089be0068004700100078000d
:103198006600400010407800ba0007000080fb007d
:1031a8008000eb00008fbe001e0078009e0090009b
:1031b80000007800700060000001eb00620f9800ca
:1031c800500f98005e089000ee089000e00f500045
:1031d800e08f5800020032006000b8002c00370071
:1031e8001e0178009e0190004418dd00cc10de001e
:1031f800810070004410dd006401470092019000d6
:10320800120178000000710081807100640147009c
:103218000089be0068004700100078006700400081
:1032280010407800970007000080fb008000eb004a
:10323800008fbe001e0078009e00900000007800fd
:10324800700060008006eb00000678000c00be00ed
:10325800e00f5000e08f5800020032006000b80014
:103268000b003700640047009000900010007800c1
:103278003e017000ae8170000200be00640147008c
:103288000089be006400470090009000100078009c
:103298004f06be004f05be004f04be000080fa0076
:1032a800000006000600fa00e400470080087800e5
:1032b8006400470010007800104078007100070093
:1032c8000080fb00000f78009e007800708060008e
:1032d8000000e000020032000000eb004000370070
:1032e8001e007800cc00dd000e80e80001087800a0
:1032f80064004700100078000000e80010407800e3
:10330800600007000080fb00000f78009e00780036
:10331800708060000000e000020032000000eb0056
:103328002f0037001e0078004800dd008e80e8007e
:1033380091007800810070000e80e8000108780094
:1033480064004700100078000080e8001040780012
:103358004c0007000080fb00000f78009e007800fa
:10336800708060000000e000020032000000eb0006
:103378001b0037001e0078004400dd008e80e80046
:1033880091007800810070000e80e8000108780044
:103398006400470010007800630040001040780087
:1033a800380007000080fb00000f78009e007800be
:1033b800708060000000e000020032000000eb00b6
:1033c800070037000e80e800100078009e007000ab
:1033d8000e80e800010878000e80e80010007800f0
:1033e8000080fa00000006000400fa008e80e80061
:1033f800800878000e80e8001000780010407800ff
:1034080020000700004f78001e80fb00700060005d
:103418000000e000020032000040eb001700370017
:103428001e407800c400dd000e00e8000148780066
:103438000e80e800100078000000e80010407800d6
:1034480010000700004f78001e80fb00700060002d
:103458000000e000020032000040eb0007003700e7
:103468000e00e800104078009e4070000e00e80052
:10347800014878000e00e800104078000080fa004b
:10348800000006000400fa008e80e80080487800fa
:103498000e80e80090407800f0c2b30080cf500062
:1034a800050036000e80e8009040780060c4b30044
:1034b80080cf50000200360000c1b3000c00370076
:1034c8000e80e8009040780000cdb30000cf4000a7
:1034d8000e80e8009040780090c3b30080cf500081
:1034e800020036009e40780067cf50001e407800ea
:1034f8000080fa00000006000400fa008e80e80050
:10350800800878000000eb00000f78000300370007
:10351800803e20006d1507001e0fe8000e80e800b1
:10352800100078009e0f5000f9ff3e000080fa005e
:10353800000006000400fa00004f78000e80e80042
:10354800010878000e80e80090007800e0912000e3
:10355800808f500002003600c0002000160037009f
:103568000e80e80090007800303c2000808f5000ea
:1035780002003e00c00020000f0037001e80fb0044
:103588008e80e8001101780080004000803a210018
:103598000080400002087800f677ef00409c200089
:1035a800609c8800619c8000409c200001005000c5
:1035b800909c88000000eb000080fa0000000600e4
:1035c8000000fa0005e1a90021e3a90013e1a90020
:1035d8000080fa00000006000000fa000068a90058
:1035e8000108a90001a8a90005e1a80021e3a80095
:1035f80013e1a8000080fa00000006000200fa00ab
:10360800004f78001e80fb006100600000407800d9
:103618000004e0000700320010c0b300bcf3b7009c
:10362800009e8000403cb000800078000040eb0025
:10363800c0ff07001e80fb00620060000000e00081
:103648000700320010c0b300bdf3b700009e800031
:10365800403cb0008000780010c0b300b5ff070000
:103668001e80fb00640060000000e00007003200dc
:1036780010c0b300bef3b700009e8000403cb0000d
:103688008000780020c0b300aaff07000000eb000c
:103698000080fa00000006000000fa000018800010
:1036a80040a7880041a78000f00f2000808f5000bd
:1036b80002003600f00f200040a7880050a78000c5
:1036c80043a7800000014000c14e21008100410055
:1036d800830878000000e80050a7880050a7800001
:1036e8006f00600050a7880061a7800070a7800065
:1036f80000804000709c88001000200040a78800cf
:103708001400370040a7800000014000c14e21008e
:103718008100410011017800719c80008100410006
:10372800719c88000000e80040a7880040a780003e
:1037380000014000c14e21008100410011017800c4
:10374800719c800081004100719c88000000e800a5
:1037580040a7880040a78000ee0f5000e9ff360020
:10376800709c80004400de00709c880060a9800086
:103778000000e80060a9880011a7800000a62e00bc
:10378800808f50000200360010c0b300e4f4b70088
:10379800709c8000e60f50002900360031a7800099
:1037a80010c0b300027d2000828f500001003e004f
:1037b8000040eb008100e80031a788000004e00029
:1037c80003003200148ea8008038210030a788003a
:1037d800709c8000eb0f50000900360070a9800033
:1037e8000000e80070a9880071a9800080bb200053
:1037f800808f50000200360010c0b300e4f4b70018
:1038080061a98000803e2000808f500033003a007c
:1038180081a98000f0a52e00808f50002f003e0067
:10382800719c8000b0aa2a000008b8004208de0097
:1038380081a980000100400080a988002700370086
:10384800e4d4bf000080fb000000e9004f00de0068
:1038580080407800d09c800000f0a7000000ea00bb
:103868000000e9004f00de000040780000c0600062
:103878000004e0000900320030a780000000e000ea
:103888000400320030a780000000e90030a788005b
:1038980002003700148ea900e234ef0070a98000fe
:1038a8000000e0000300320070a980000000e90079
:1038b80070a9880061a98000803e2000808f500098
:1038c80006003a0080a980000000e00003003200f2
:1038d80080a980000000e90080a98800e4d4bf0026
:1038e8000004e00013003200d09c80000000e800d3
:1038f800d09c8800ae33ef00b033ef00b233ef0056
:10390800d19c800000042000008060000000e000de
:1039180001003200148ea800d19c8000000820000d
:10392800808f500011003600148ea9009a33ef00e2
:103938000e003700d09c80000000e0000b00320031
:10394800d19c800000202000008060000000e00082
:1039580002003200148ea80001003700148ea9005e
:10396800d09c80000000e900d09c880061a98000fc
:10397800803e2000808f500001003a002c35ef0077
:103988000080fa00000006000400fa0000c02400cd
:1039980001002000409e8800519e8800419e8000c2
:1039a800509e8000f4130700008fbe001e007800b0
:1039b8008000eb00809e8800919e8800409e8000d9
:1039c800519e800062004000e0804800409e8800d0
:1039d800519e8800419e8000509e8000e61307009b
:1039e800008fbe001e0078008000eb00c001dd00e3
:1039f80002002000809e8000919e800000007100df
:103a080081807100809e8800919e880060c024009b
:103a180001002000409e8800519e8800419e800041
:103a2800509e8000d4130700008fbe001e0078004f
:103a3800009e8800a0c0240001002000409e88004d
:103a4800519e8800419e8000509e8000ca13070046
:103a5800008fbe001e007800109e8800c0c02400a1
:103a680001002000409e8800519e8800419e8000f1
:103a7800509e8000c0130700008fbe001e00780013
:103a8800209e8800e0c0240001002000409e88009d
:103a9800519e8800419e8000509e8000b61307000a
:103aa800008fbe001e007800309e880080c0240071
:103ab80001002000409e8800519e8800419e8000a1
:103ac800509e8000ac130700008fbe001e007800d7
:103ad80000407800f1f7b70040c024000100200042
:103ae800409e8800519e8800419e8000509e800024
:103af800a1130700008fbe001e0078000040780068
:103b080060f4b7000080fa00000006000000fa0028
:103b1800889fbe0000c02400010020009700070015
:103b2800829e8000939e8000f0ff2f0001002000fd
:103b38000202780003017800800178008100780093
:103b480003006200810061008104780000047800ad
:103b58000800be000001be0000c0240001002000d3
:103b6800af000700809e8000919e80004008de0024
:103b7800010020000001be0020c024000100200038
:103b8800a700070060d4bf000080fb008000eb00a6
:103b98000001be0040c0240001002000a000070072
:103ba800f1d7bf000080fb008000eb000001be00e1
:103bb80080c024000100200099000700009e8000ba
:103bc8008000eb000001be0060c02400010020005e
:103bd80093000700109e80008000eb000001be00eb
:103be800a0c02400010020008d000700209e800056
:103bf8008000eb000001be00c0c0240001002000ce
:103c080087000700309e80008000eb000001be00a6
:103c1800e0c0240001002000810007004f04be001e
:103c28000080fa00000006000600fa00e4004700e1
:103c38008008780064004700100078001040780081
:103c4800004f780064004700100078000000e8008a
:103c5800904078000e00e8000148780064004700b2
:103c6800100078000080e800904078000e80e8009e
:103c780001487800640047001000780063004000a5
:103c88009040780063004700014878001e007800e3
:103c98009e0090000080fa00000006000a00fa006a
:103ca800e40147008089be006800470002087800e8
:103cb80064004700301f7800201778001e40780005
:103cc800e8004700910078008048780068004700c5
:103cd800100078000000e8008e00e80091407800ad
:103ce8000148780068004700100078000080e8006c
:103cf8008e80e8009140780001487800680047000d
:103d08001000780063004000e3004700914078000d
:103d1800014878000080fa00000006000000fa0060
:103d2800d000240040398800c3e8a90050052000cd
:103d380070398800a00a20007039880029e7a80097
:103d48000000000000000000000000004139800071
:103d580000002800008060000000e000fbff3a003f
:103d6800c3e8a800403980004d00de0061406000d3
:103d78000080fb000080fa00000006000800fa003e
:103d8800640147000089be0064004700301f7800c6
:103d9800201778000e80e800104078000080fb00b3
:103da800a00288000e80e8001000780060398800c2
:103db8001e007800503988009e0078000080eb00d3
:103dc8008008bb003000240040398800c3e8a900ff
:103dd8005005200070398800a00a2000703988003a
:103de80029e7a80000000000000000000000000013
:103df8004139800000002800008060000000e000d9
:103e0800fbff3a00c3e8a800403980004d00de00ff
:103e1800614060000080fb000080fa00000006009e
:103e28001000fa0068034700008bbe006c004700d2
:103e38000288be0068004700301f7800201778000d
:103e480064004700ec004700311878002110780022
:103e580010002400403988000e80e8001000780027
:103e6800603988001e00780050398800a00f2000b3
:103e7800a0028800680047009000900010007800b9
:103e880000007800630060008002eb000002780008
:103e98000400be00e00f5000e08f58000f00320011
:103ea8000000eb008080eb000108bb001000200040
:103eb800f10f20000188bb006400470090007800e3
:103ec800200020000108bb00660047009000780031
:103ed800300020000188bb000e0037006400470056
:103ee800900078000000eb000108bb006600470066
:103ef80090007800100020000188bb0020002000fe
:103f08008080eb000108bb0030002000f10f20008a
:103f18000188bb00c3e8a90050052000703988005b
:103f2800a00a20007039880029e7a80000000000d6
:103f38000000000000000000413980000000280057
:103f4800008060000000e000fbff3a00c3e8a80022
:103f5800403980004d00de00614060000080fb00b9
:103f68000080fa00000006000200fa00000f780046
:103f78003136800000f82f00808060005002200059
:103f880001007000303688002134800000fc2f00ca
:103f9800008060003000b300203488003022ef0039
:103fa8009e007800c11188003222ef0031e2a8009b
:103fb8003342a80071428000f08f2f00008060001b
:103fc80000a0a0007042880071428000f0ff280025
:103fd8000080600000e0a0007042880003c8a900cb
:103fe80023c8a8000080fa00000006000200fa00ba
:103ff800b0118000004f780003c8a900a1ad80006f
:10400800f0072000808f50000f003c00b0ad80000a
:104018001e41780041532100810040008248780009
:104028000000e800b0ad8800b1ad800000082000b5
:10403800808f500001003a00b635ef00a0ad800037
:104048000000e800a0ad88000080fa00000006002b
:104058000200fa0023c8a900a0ad80000000e0001b
:1040680003003a000080eb00000f780010003700d2
:10407800c0ad80004153210081004000914078008c
:104088008180fb00010f78000000e800c0ad8800c7
:10409800c1ad800000082000808f500001003a0068
:1040a800b835ef00a0ad80000000e900a0ad8800a1
:1040b80023c8a8001e0078000080fa00000006004f
:1040c8000000fa00d0b180000000e00002003c00cf
:1040d80023e8a90010003700f0b18000a15b21009f
:1040e80081004000914078008100fb00a111880008
:1040f8000000e800f0b18800f1b18000000820005d
:10410800808f500001003a003e36ef00d0b18000a9
:104118000000e900d0b1880003e8a9000080fa0097
:10412800000006000200fa00004f780000000000be
:104138000100370000000000d1b18000f007200026
:10414800808f5000fbff3c0023e8a900e0b180000d
:10415800a15b2100810040009e4878000000e80033
:10416800e0b18800e1b1800000082000808f500095
:1041780001003a003c36ef00d0b180000000e800b2
:10418800d0b1880023e8a8000080fa0000000600eb
:104198000200fa00000f78002136800000f82f0096
:1041a8008080600020022000010070002036880016
:1041b80001348000f00f2c00008060000080a00017
:1041c800003488002022ef009e007800411188000a
:1041d8002222ef0021e2a8002342a8002142800009
:1041e800f0ff28000080600000e0a0002042880066
:1041f800304280007000b300304288000168a90096
:104208002168a8000080fa00000006000200fa00f9
:1042180030118000004f78001e80fb00709e8800df
:104228000168a900018c8000f0172000808f5000e1
:104238000e003c00108c800001002100810040002d
:104248009e4878000000e800108c8800118c8000df
:1042580000182000808f500001003a008231ef00e2
:10426800008c80000000e800008c88000080fa00c4
:10427800000006000200fa002168a900008c8000f6
:104288000000e00003003a000080eb00000f780017
:1042980010003700208c80000100210081004000c0
:1042a800914078008180fb00010f78000000e80051
:1042b800208c8800218c800000182000808f5000fe
:1042c80001003a008431ef00008c80000000e90012
:1042d800008c88002168a8001e0078000080fa0081
:1042e800000006000000fa00309c80000000e0009a
:1042f80002003c002188a900110037000188a900ac
:10430800509c800061182100810040009140780095
:104318008100fb00211188000000e800509c880003
:10432800519c800000202000808f500001003a003e
:104338008a33ef00309c80000000e900309c880040
:104348000080fa00000006000200fa00004f780022
:10435800000000000100370000000000319c8000d0
:10436800f01f2000808f5000fbff3c002188a9002f
:10437800409c800061182100810040009e48780020
:104388000000e800409c8800419c8000002020003c
:10439800808f500001003a008833ef00309c800085
:1043a8000000e800309c88002188a8000080fa00fe
:1043b800000006000000fa003000200000708800ad
:1043c8004022200080708800100020007070880053
:1043d8001e2eef0060002000507088004022200050
:1043e800d0708800213a800000fe2f000080600015
:1043f800203a8800213a8000f0f32f000080600006
:10440800203a8800313a800000e02f008080600068
:10441800a004200001007000303a8800213a800092
:10442800f08f2f0000806000203a88000000eb0029
:10443800e3c1200011322400d2bc2a00820978008e
:1044480081097800206188000000eb00e3c12000aa
:1044580011322400d2bc2a00820978008109780030
:10446800206288000000eb00e3c120001132240024
:10447800d2bc2a008209780081097800206388006c
:1044880000002500e3c1200011322400d2bc2a001c
:1044980082097800810978001061880000002500f1
:1044a800e3c1200011322400d2bc2a00820978001e
:1044b800810978001062880000002500e3c120000f
:1044c80011322400d2bc2a008209780081097800c0
:1044d8001063880011e1a90011428000f0ff280054
:1044e8000080600000c0a000104288000000280082
:1044f8008008880000e8a90020e8a800810880005a
:10450800f0fc2f00008060000040a00080088800b8
:1045180090112100600888000080fa000000060061
:104528000200fa00c4d7bf00e14f50001f003a0054
:1045380000c1b3002700370030be80009e0078001d
:1045480001417800417421008100400082487800d0
:104558000000e80030be880030be8000e60f500042
:104568000a003a0048d7bf000004e00005003d00fb
:1045780046d7bf000000fb006600400040be880030
:10458800020037006000200040be880031be800075
:1045980040be8000808f500005003a00c637ef000b
:1045a80010c0b300c4f7b7000100370000000000d6
:1045b800c4d7bf00e14f5000050032002dff0700af
:1045c800000f78001e007800e10f4000daff3a0083
:1045d80040c0b3000080fa00000006000400fa00a2
:1045e8008e80e800800878000e80e80010007800cf
:1045f80064004000104078000004e00007003d001f
:104608000e80e800100078000080e8001040780074
:104618000000fb0066004000010037006000200039
:10462800000f7800090037000e80e80010007800bd
:10463800104078008e80e800910078000101e800c1
:104648008e80e800820878003fff07001e0078008f
:1046580000f0a7000000ea000000ea004f00de00ba
:10466800004078001e0fe9000004e000eeff3a0069
:084678000080fa0000000600ba
:020000040000fa
:10885000441700008600000080000000ca170000d6
:108860004200000082000000613104006132040017
:108870006133040072310400723204007233040068
:10888000686f0100736f0800736a08007376020056
:1088900063610100676101006e761e00640a0000da
:1088a00000000300440400000001500064040000c4
:1088b000000150006604000000015000000080002c
:1088c0008c130000a80100008000000000100000d0
:1088d0008c03000080000000341500000c01000033
:1088e000800000004016000004010000800000002d
:0488f0000000000084
:020000040000fa
:108a38000000fa0001198000f0cf2f0000806000cc
:108a48000019880001198000f0f12f0000806000f3
:108a58000060a000001988002043a8002343a80054
:108a680025e3a9001119800030f82f00008060006c
:108a78000020a00010198800f0c3b30024e3b70059
:108a880090112100700888000000280090088800d4
:108a980091088000f0fc2f00008060000040a000da
:108aa800900888000108a9002108a90010002000ea
:108ab8008019880001a8a90021a8a80021e3a8001e
:0c8ac80013e1a8000080fa000000060086
:020000040000fa
:10893800a002880081007800000006004039880005
:108948005005200070398800a00a2000703988007e
:1089580029e7a800000000000000000029e7af0098
:10896800feff370000000600a00288008308bb0055
:108978008288bb0000000600a00288001100ba002f
:108988009180ba00000006005400f80042398800bf
:10899800a00288008108bb005005200070398800bb
:1089a800a00a20007039880029e7a800000000000c
:1089b8000000000029e7af00feff37005400f9006f
:0489c80000000600a5
:020000040000fa
:108ad400818b28000008b800823e200011000900a4
:108ae4004288d8002002b100008009000000000084
:0c8af4000000060000500400000000001c
:00000001FF
